{
  "_format": "hh-sol-artifact-1",
  "contractName": "BlindDeal",
  "sourceName": "contracts/BlindDeal.sol",
  "abi": [
    {
      "inputs": [],
      "stateMutability": "nonpayable",
      "type": "constructor"
    },
    {
      "inputs": [
        {
          "internalType": "address",
          "name": "owner",
          "type": "address"
        }
      ],
      "name": "OwnableInvalidOwner",
      "type": "error"
    },
    {
      "inputs": [
        {
          "internalType": "address",
          "name": "account",
          "type": "address"
        }
      ],
      "name": "OwnableUnauthorizedAccount",
      "type": "error"
    },
    {
      "anonymous": false,
      "inputs": [
        {
          "indexed": true,
          "internalType": "uint256",
          "name": "dealId",
          "type": "uint256"
        },
        {
          "indexed": false,
          "internalType": "address",
          "name": "buyer",
          "type": "address"
        }
      ],
      "name": "BuyerJoined",
      "type": "event"
    },
    {
      "anonymous": false,
      "inputs": [
        {
          "indexed": true,
          "internalType": "uint256",
          "name": "dealId",
          "type": "uint256"
        },
        {
          "indexed": false,
          "internalType": "address",
          "name": "seller",
          "type": "address"
        },
        {
          "indexed": false,
          "internalType": "string",
          "name": "itemName",
          "type": "string"
        }
      ],
      "name": "DealCreated",
      "type": "event"
    },
    {
      "anonymous": false,
      "inputs": [
        {
          "indexed": true,
          "internalType": "uint256",
          "name": "dealId",
          "type": "uint256"
        },
        {
          "indexed": false,
          "internalType": "bool",
          "name": "success",
          "type": "bool"
        },
        {
          "indexed": false,
          "internalType": "uint256",
          "name": "minPrice",
          "type": "uint256"
        },
        {
          "indexed": false,
          "internalType": "uint256",
          "name": "offerPrice",
          "type": "uint256"
        }
      ],
      "name": "DealMatched",
      "type": "event"
    },
    {
      "anonymous": false,
      "inputs": [
        {
          "indexed": true,
          "internalType": "address",
          "name": "previousOwner",
          "type": "address"
        },
        {
          "indexed": true,
          "internalType": "address",
          "name": "newOwner",
          "type": "address"
        }
      ],
      "name": "OwnershipTransferred",
      "type": "event"
    },
    {
      "anonymous": false,
      "inputs": [
        {
          "indexed": true,
          "internalType": "uint256",
          "name": "dealId",
          "type": "uint256"
        },
        {
          "indexed": false,
          "internalType": "address",
          "name": "user",
          "type": "address"
        }
      ],
      "name": "PriceCommitted",
      "type": "event"
    },
    {
      "anonymous": false,
      "inputs": [
        {
          "indexed": true,
          "internalType": "uint256",
          "name": "dealId",
          "type": "uint256"
        },
        {
          "indexed": false,
          "internalType": "address",
          "name": "user",
          "type": "address"
        }
      ],
      "name": "PriceRevealed",
      "type": "event"
    },
    {
      "inputs": [
        {
          "internalType": "string",
          "name": "itemName",
          "type": "string"
        },
        {
          "internalType": "uint256",
          "name": "minPrice",
          "type": "uint256"
        },
        {
          "internalType": "bytes32",
          "name": "secret",
          "type": "bytes32"
        }
      ],
      "name": "createDeal",
      "outputs": [
        {
          "internalType": "uint256",
          "name": "",
          "type": "uint256"
        }
      ],
      "stateMutability": "nonpayable",
      "type": "function"
    },
    {
      "inputs": [],
      "name": "dealCount",
      "outputs": [
        {
          "internalType": "uint256",
          "name": "",
          "type": "uint256"
        }
      ],
      "stateMutability": "view",
      "type": "function"
    },
    {
      "inputs": [
        {
          "internalType": "uint256",
          "name": "",
          "type": "uint256"
        }
      ],
      "name": "deals",
      "outputs": [
        {
          "internalType": "address",
          "name": "seller",
          "type": "address"
        },
        {
          "internalType": "address",
          "name": "buyer",
          "type": "address"
        },
        {
          "internalType": "string",
          "name": "itemName",
          "type": "string"
        },
        {
          "internalType": "bytes32",
          "name": "minPriceHash",
          "type": "bytes32"
        },
        {
          "internalType": "bytes32",
          "name": "offerPriceHash",
          "type": "bytes32"
        },
        {
          "internalType": "uint256",
          "name": "minPriceRevealed",
          "type": "uint256"
        },
        {
          "internalType": "uint256",
          "name": "offerPriceRevealed",
          "type": "uint256"
        },
        {
          "internalType": "bool",
          "name": "sellerCommitted",
          "type": "bool"
        },
        {
          "internalType": "bool",
          "name": "buyerCommitted",
          "type": "bool"
        },
        {
          "internalType": "bool",
          "name": "sellerRevealed",
          "type": "bool"
        },
        {
          "internalType": "bool",
          "name": "buyerRevealed",
          "type": "bool"
        },
        {
          "internalType": "bool",
          "name": "dealMatched",
          "type": "bool"
        },
        {
          "internalType": "bool",
          "name": "dealCompleted",
          "type": "bool"
        }
      ],
      "stateMutability": "view",
      "type": "function"
    },
    {
      "inputs": [
        {
          "internalType": "uint256",
          "name": "dealId",
          "type": "uint256"
        }
      ],
      "name": "getDeal",
      "outputs": [
        {
          "internalType": "address",
          "name": "seller",
          "type": "address"
        },
        {
          "internalType": "address",
          "name": "buyer",
          "type": "address"
        },
        {
          "internalType": "string",
          "name": "itemName",
          "type": "string"
        },
        {
          "internalType": "bool",
          "name": "sellerCommitted",
          "type": "bool"
        },
        {
          "internalType": "bool",
          "name": "buyerCommitted",
          "type": "bool"
        },
        {
          "internalType": "bool",
          "name": "sellerRevealed",
          "type": "bool"
        },
        {
          "internalType": "bool",
          "name": "buyerRevealed",
          "type": "bool"
        },
        {
          "internalType": "bool",
          "name": "dealCompleted",
          "type": "bool"
        },
        {
          "internalType": "bool",
          "name": "dealMatched",
          "type": "bool"
        }
      ],
      "stateMutability": "view",
      "type": "function"
    },
    {
      "inputs": [
        {
          "internalType": "uint256",
          "name": "dealId",
          "type": "uint256"
        }
      ],
      "name": "getRevealedPrices",
      "outputs": [
        {
          "internalType": "uint256",
          "name": "minPrice",
          "type": "uint256"
        },
        {
          "internalType": "uint256",
          "name": "offerPrice",
          "type": "uint256"
        }
      ],
      "stateMutability": "view",
      "type": "function"
    },
    {
      "inputs": [
        {
          "internalType": "uint256",
          "name": "dealId",
          "type": "uint256"
        },
        {
          "internalType": "uint256",
          "name": "offerPrice",
          "type": "uint256"
        },
        {
          "internalType": "bytes32",
          "name": "secret",
          "type": "bytes32"
        }
      ],
      "name": "makeOffer",
      "outputs": [],
      "stateMutability": "nonpayable",
      "type": "function"
    },
    {
      "inputs": [],
      "name": "owner",
      "outputs": [
        {
          "internalType": "address",
          "name": "",
          "type": "address"
        }
      ],
      "stateMutability": "view",
      "type": "function"
    },
    {
      "inputs": [],
      "name": "renounceOwnership",
      "outputs": [],
      "stateMutability": "nonpayable",
      "type": "function"
    },
    {
      "inputs": [
        {
          "internalType": "uint256",
          "name": "dealId",
          "type": "uint256"
        },
        {
          "internalType": "uint256",
          "name": "minPrice",
          "type": "uint256"
        },
        {
          "internalType": "bytes32",
          "name": "secret",
          "type": "bytes32"
        }
      ],
      "name": "revealMinPrice",
      "outputs": [],
      "stateMutability": "nonpayable",
      "type": "function"
    },
    {
      "inputs": [
        {
          "internalType": "uint256",
          "name": "dealId",
          "type": "uint256"
        },
        {
          "internalType": "uint256",
          "name": "offerPrice",
          "type": "uint256"
        },
        {
          "internalType": "bytes32",
          "name": "secret",
          "type": "bytes32"
        }
      ],
      "name": "revealOfferPrice",
      "outputs": [],
      "stateMutability": "nonpayable",
      "type": "function"
    },
    {
      "inputs": [
        {
          "internalType": "address",
          "name": "newOwner",
          "type": "address"
        }
      ],
      "name": "transferOwnership",
      "outputs": [],
      "stateMutability": "nonpayable",
      "type": "function"
    }
  ],
  "bytecode": "0x6080806040523461007a5733156100645760008054336001600160a01b03198216811783556040519290916001600160a01b0316907f8be0079c531659141344cd1fd0a4f28419497f9722a3daafe3b4186f6b6457e09080a3610eb290816100808239f35b631e4fbdf760e01b815260006004820152602490fd5b600080fdfe60406080815260048036101561001457600080fd5b600091823560e01c806303988f8414610acd578063437e7d211461096c57806343ab31c114610680578063563a7c0c146105fd578063715018a6146105a057806382fd5bac146104e55780638da5cb5b146104bd578063dca8cf471461034b578063eadb3c9c14610328578063eea1117e146101295763f2fde38b1461009957600080fd5b34610125576020366003190112610125576001600160a01b03823581811693919290849003610121576100ca610e50565b831561010b57505082546001600160a01b0319811683178455167f8be0079c531659141344cd1fd0a4f28419497f9722a3daafe3b4186f6b6457e08380a380f35b51631e4fbdf760e01b8152908101849052602490fd5b8480fd5b8280fd5b5090346101255761013936610d09565b828695939552602093600285528387209060018060a01b0392838354169485156102ef57600184019586549586166102b557331461027957600784019586549560ff8760281c1661023d576001600160a01b031916339081179091558751808a01928352602083019390935260601b6001600160601b03191660408201527fc1ee959b91e174a771dd2e9afd5f85cc1c64104eb543b3765d394d9c3d500dd59796959461010094909390929091906101fe81605484015b03601f198101835282610bec565b51902091015561ff001916179055837fafe2fdf9eb4edb752622bd91ff3a7b2e2fc70c8bb80d9f11812abdd611a35cfe838351338152a251338152a280f35b885162461bcd60e51b81528086018b905260166024820152751119585b08185b1c9958591e4818dbdb5c1b195d195960521b6044820152606490fd5b865162461bcd60e51b8152808401899052601660248201527529b2b63632b91031b0b73737ba10313290313abcb2b960511b6044820152606490fd5b875162461bcd60e51b81528085018a90526014602482015273109d5e595c88185b1c9958591e481a9bda5b995960621b6044820152606490fd5b865162461bcd60e51b815280840189905260136024820152721119585b08191bd95cc81b9bdd08195e1a5cdd606a1b6044820152606490fd5b8382346103475781600319360112610347576020906001549051908152f35b5080fd5b5090346101255761035b36610d09565b828652600260205284862060018101549395939192916001600160a01b0316330361048257600781019485549360ff85161561043f57847ff61cbf4f18634dcdfe82ccaeeacddbc29ff8246fbc5723f80ada4fdf7ce2190f94600660209561041560ff9b9a966301000000966103d88f9c8f9060181c1615610d28565b88518a810187815260208101929092523360601b6001600160601b031916604083015261040881605484016101f0565b5190209083015414610d67565b015563ff00000019161780955551338152a260101c16610433575080f35b61043c90610da4565b80f35b855162461bcd60e51b8152602081840152601860248201527f53656c6c6572206d75737420636f6d6d697420666972737400000000000000006044820152606490fd5b835162461bcd60e51b8152602081870152601560248201527413db9b1e48189d5e595c8818d85b881c995d99585b605a1b6044820152606490fd5b838234610347578160031936011261034757905490516001600160a01b039091168152602090f35b5090346101255760203660031901126101255735825260026020819052918190208054600182015460078301546001600160a01b0392831695909360ff936105519316916105339101610c24565b90855196879661012092839289526020890152870152850190610cc9565b9181811615156060850152818160081c1615156080850152818160101c16151560a0850152818160181c16151560c0850152818160281c16151560e085015260201c1615156101008301520390f35b83346105fa57806003193601126105fa576105b9610e50565b80546001600160a01b03198116825581906001600160a01b03167f8be0079c531659141344cd1fd0a4f28419497f9722a3daafe3b4186f6b6457e08280a380f35b80fd5b5091346105fa5760203660031901126105fa578290823581526002602052209060ff600783015460281c161561064457506006600582015491015482519182526020820152f35b606490602084519162461bcd60e51b835282015260166024820152751119585b081b9bdd0818dbdb5c1b195d1959081e595d60521b6044820152fd5b5090346101255760603660031901126101255767ffffffffffffffff918135838111610121573660238201121561012157808301359060249480831161095a5760209587601f19938651956106dc8a87601f8401160188610bec565b808752368482840101116101255780848b9301838901378601015260019283549660001993848914610948578589018655888b5260028a52878b2094336bffffffffffffffffffffffff60a01b8754161786556002860192885192831161093657506107488354610bb2565b601f81116108f4575b508b8a9b9c9a999a508c90601f841160011461085557947ff1690f0756e6eef060b816259595c4f48f94c8ab5b9e780c3e53ee32cf5c28bd999794846108189a98956107e3956107ef9560079a9261084a575b50828b1b9260031b1c19161790555b8b519335848f0190815260443560208201523360601b6001600160601b0319166040820152939283906054860190565b03908101835282610bec565b5190206003820155019060ff198254161790558451918291338352868984015286830190610cc9565b0390a2817fc1ee959b91e174a771dd2e9afd5f85cc1c64104eb543b3765d394d9c3d500dd5848351338152a251908152f35b8c01519150386107a4565b8481528d81209a99989796959493929190838616908f5b8282106108da5750509388847ff1690f0756e6eef060b816259595c4f48f94c8ab5b9e780c3e53ee32cf5c28bd9c9d6107ef956108189d9c9b99956107e39860079c9a106108c2575b505050811b0190556107b3565b8d01519060f88460031b161c191690553880806108b5565b8b8401518e559c8a019c8f9c50928301929081019061086c565b838d528b8d20601f840160051c8101918d851061092c575b601f0160051c01905b8181106109225750610751565b8d81558801610915565b909150819061090c565b634e487b7160e01b8d5260419052848cfd5b634e487b7160e01b8b5260118252838bfd5b634e487b7160e01b8752604185528587fd5b50346101255761097b36610d09565b92919390848652600260205282862060018060a01b038154163303610a9157600781019485549360ff8560081c1615610a4e57509362010000847ff61cbf4f18634dcdfe82ccaeeacddbc29ff8246fbc5723f80ada4fdf7ce2190f946005602095610a3160ff9b9a6109f38d8f9c60101c1615610d28565b875189810186815260208101929092523360601b6001600160601b0319166040830152610a2381605484016101f0565b519020600383015414610d67565b015562ff000019161780955551338152a260181c16610433575080f35b606490602087519162461bcd60e51b8352820152601760248201527f4275796572206d75737420636f6d6d69742066697273740000000000000000006044820152fd5b835162461bcd60e51b8152602081850152601660248201527513db9b1e481cd95b1b195c8818d85b881c995d99585b60521b6044820152606490fd5b5082346105fa5760203660031901126105fa578190833581526002602052209160018060a01b0392838154169360018201541690610b0d60028201610c24565b90600381015493810154600582015490610b4b600760068501549401549460ff9689519a8b9a6101a09283928d5260208d01528b0152890190610cc9565b956060880152608087015260a086015260c0850152818116151560e0850152818160081c161515610100850152818160101c161515610120850152818160181c161515610140850152818160201c16151561016085015260281c1615156101808301520390f35b90600182811c92168015610be2575b6020831014610bcc57565b634e487b7160e01b600052602260045260246000fd5b91607f1691610bc1565b90601f8019910116810190811067ffffffffffffffff821117610c0e57604052565b634e487b7160e01b600052604160045260246000fd5b90604051918260008254610c3781610bb2565b90818452602094600191600181169081600014610ca75750600114610c68575b505050610c6692500383610bec565b565b600090815285812095935091905b818310610c8f575050610c669350820101388080610c57565b85548884018501529485019487945091830191610c76565b92505050610c6694925060ff191682840152151560051b820101388080610c57565b919082519283825260005b848110610cf5575050826000602080949584010152601f8019910116010190565b602081830181015184830182015201610cd4565b6060906003190112610d2357600435906024359060443590565b600080fd5b15610d2f57565b60405162461bcd60e51b815260206004820152601060248201526f105b1c9958591e481c995d99585b195960821b6044820152606490fd5b15610d6e57565b60405162461bcd60e51b815260206004820152600e60248201526d125b9d985b1a59081c995d99585b60921b6044820152606490fd5b8060005260026020527fd827735fef0f893f018523236cde2076e708b57fdd78386e63e180ba9a3ee63660606040600020600681016007815492600581019384541115600014610e3c57808201805464ff0000000019166401000000001790555b01916501000000000065ff000000000019845416178093555490549060ff6040519360201c161515835260208301526040820152a2565b808201805464ff0000000019169055610e05565b6000546001600160a01b03163303610e6457565b60405163118cdaa760e01b8152336004820152602490fdfea26469706673582212205e04bf2fb8e00a7e0776984c50681ece609cb5d46649b95116b18a36c0b731e664736f6c63430008180033",
  "linkReferences": {},
  "deployedLinkReferences": {}
}